{
  "_format": "hh-sol-artifact-1",
  "contractName": "DocumentRegistry",
  "sourceName": "contracts/DocumentRegistry.sol",
  "abi": [
    {
      "anonymous": false,
      "inputs": [
        {
          "indexed": true,
          "internalType": "bytes32",
          "name": "documentHash",
          "type": "bytes32"
        },
        {
          "indexed": true,
          "internalType": "address",
          "name": "owner",
          "type": "address"
        },
        {
          "indexed": true,
          "internalType": "address",
          "name": "user",
          "type": "address"
        }
      ],
      "name": "AccessGranted",
      "type": "event"
    },
    {
      "anonymous": false,
      "inputs": [
        {
          "indexed": true,
          "internalType": "bytes32",
          "name": "documentHash",
          "type": "bytes32"
        },
        {
          "indexed": true,
          "internalType": "address",
          "name": "owner",
          "type": "address"
        },
        {
          "indexed": true,
          "internalType": "address",
          "name": "user",
          "type": "address"
        }
      ],
      "name": "AccessRevoked",
      "type": "event"
    },
    {
      "anonymous": false,
      "inputs": [
        {
          "indexed": true,
          "internalType": "bytes32",
          "name": "documentHash",
          "type": "bytes32"
        },
        {
          "indexed": true,
          "internalType": "address",
          "name": "owner",
          "type": "address"
        },
        {
          "indexed": false,
          "internalType": "string",
          "name": "cid",
          "type": "string"
        }
      ],
      "name": "DocumentRegistered",
      "type": "event"
    },
    {
      "anonymous": false,
      "inputs": [
        {
          "indexed": true,
          "internalType": "bytes32",
          "name": "documentHash",
          "type": "bytes32"
        },
        {
          "indexed": true,
          "internalType": "address",
          "name": "owner",
          "type": "address"
        },
        {
          "indexed": false,
          "internalType": "uint256",
          "name": "version",
          "type": "uint256"
        },
        {
          "indexed": false,
          "internalType": "string",
          "name": "newCid",
          "type": "string"
        }
      ],
      "name": "DocumentUpdated",
      "type": "event"
    },
    {
      "inputs": [
        {
          "internalType": "bytes32",
          "name": "documentHash",
          "type": "bytes32"
        }
      ],
      "name": "getDocument",
      "outputs": [
        {
          "internalType": "address",
          "name": "owner",
          "type": "address"
        },
        {
          "internalType": "string",
          "name": "cid",
          "type": "string"
        },
        {
          "internalType": "uint256",
          "name": "createdAt",
          "type": "uint256"
        },
        {
          "internalType": "uint256",
          "name": "updatedAt",
          "type": "uint256"
        },
        {
          "internalType": "uint256",
          "name": "versionCount",
          "type": "uint256"
        }
      ],
      "stateMutability": "view",
      "type": "function"
    },
    {
      "inputs": [
        {
          "internalType": "bytes32",
          "name": "documentHash",
          "type": "bytes32"
        },
        {
          "internalType": "uint256",
          "name": "index",
          "type": "uint256"
        }
      ],
      "name": "getVersionAtIndex",
      "outputs": [
        {
          "internalType": "string",
          "name": "",
          "type": "string"
        }
      ],
      "stateMutability": "view",
      "type": "function"
    },
    {
      "inputs": [
        {
          "internalType": "bytes32",
          "name": "documentHash",
          "type": "bytes32"
        }
      ],
      "name": "getVersionCount",
      "outputs": [
        {
          "internalType": "uint256",
          "name": "",
          "type": "uint256"
        }
      ],
      "stateMutability": "view",
      "type": "function"
    },
    {
      "inputs": [
        {
          "internalType": "bytes32",
          "name": "documentHash",
          "type": "bytes32"
        },
        {
          "internalType": "address",
          "name": "user",
          "type": "address"
        }
      ],
      "name": "grantAccess",
      "outputs": [],
      "stateMutability": "nonpayable",
      "type": "function"
    },
    {
      "inputs": [
        {
          "internalType": "bytes32",
          "name": "documentHash",
          "type": "bytes32"
        },
        {
          "internalType": "address",
          "name": "user",
          "type": "address"
        }
      ],
      "name": "hasAccess",
      "outputs": [
        {
          "internalType": "bool",
          "name": "",
          "type": "bool"
        }
      ],
      "stateMutability": "view",
      "type": "function"
    },
    {
      "inputs": [
        {
          "internalType": "bytes32",
          "name": "documentHash",
          "type": "bytes32"
        },
        {
          "internalType": "string",
          "name": "cid",
          "type": "string"
        }
      ],
      "name": "registerDocument",
      "outputs": [],
      "stateMutability": "nonpayable",
      "type": "function"
    },
    {
      "inputs": [
        {
          "internalType": "bytes32",
          "name": "documentHash",
          "type": "bytes32"
        },
        {
          "internalType": "address",
          "name": "user",
          "type": "address"
        }
      ],
      "name": "revokeAccess",
      "outputs": [],
      "stateMutability": "nonpayable",
      "type": "function"
    },
    {
      "inputs": [
        {
          "internalType": "bytes32",
          "name": "documentHash",
          "type": "bytes32"
        },
        {
          "internalType": "string",
          "name": "newCid",
          "type": "string"
        }
      ],
      "name": "updateDocument",
      "outputs": [],
      "stateMutability": "nonpayable",
      "type": "function"
    }
  ],
  "bytecode": "0x6080604052348015600f57600080fd5b50611bd58061001f6000396000f3fe608060405234801561001057600080fd5b50600436106100885760003560e01c80638d53b2081161005b5780638d53b20814610125578063b10d6b4114610141578063de4920f414610175578063fa17185a146101a557610088565b806340554c3a1461008d5780634b15dcce146100a957806375681539146100c557806383177db3146100f5575b600080fd5b6100a760048036038101906100a29190611010565b6101c1565b005b6100c360048036038101906100be91906110b5565b6103ff565b005b6100df60048036038101906100da919061114b565b610674565b6040516100ec919061121b565b60405180910390f35b61010f600480360381019061010a9190611010565b6107f0565b60405161011c9190611258565b60405180910390f35b61013f600480360381019061013a9190611010565b6108fa565b005b61015b60048036038101906101569190611273565b610ac9565b60405161016c9594939291906112be565b60405180910390f35b61018f600480360381019061018a9190611273565b610c22565b60405161019c9190611318565b60405180910390f35b6101bf60048036038101906101ba91906110b5565b610ca4565b005b8160008082815260200190815260200160002060050160009054906101000a900460ff16610224576040517f08c379a000000000000000000000000000000000000000000000000000000000815260040161021b9061137f565b60405180910390fd5b3373ffffffffffffffffffffffffffffffffffffffff1660008083815260200190815260200160002060000160009054906101000a900473ffffffffffffffffffffffffffffffffffffffff1673ffffffffffffffffffffffffffffffffffffffff16146102c7576040517f08c379a00000000000000000000000000000000000000000000000000000000081526004016102be906113eb565b60405180910390fd5b600073ffffffffffffffffffffffffffffffffffffffff168273ffffffffffffffffffffffffffffffffffffffff1603610336576040517f08c379a000000000000000000000000000000000000000000000000000000000815260040161032d90611457565b60405180910390fd5b60016002600085815260200190815260200160002060008473ffffffffffffffffffffffffffffffffffffffff1673ffffffffffffffffffffffffffffffffffffffff16815260200190815260200160002060006101000a81548160ff0219169083151502179055508173ffffffffffffffffffffffffffffffffffffffff163373ffffffffffffffffffffffffffffffffffffffff16847f7aeffe35f64b55a7c424c5fccc3fba0f3ac4ebd764cc737855b8734834458f2b60405160405180910390a4505050565b8260008082815260200190815260200160002060050160009054906101000a900460ff16610462576040517f08c379a00000000000000000000000000000000000000000000000000000000081526004016104599061137f565b60405180910390fd5b3373ffffffffffffffffffffffffffffffffffffffff1660008083815260200190815260200160002060000160009054906101000a900473ffffffffffffffffffffffffffffffffffffffff1673ffffffffffffffffffffffffffffffffffffffff1614610505576040517f08c379a00000000000000000000000000000000000000000000000000000000081526004016104fc906113eb565b60405180910390fd5b6000838390501161054b576040517f08c379a0000000000000000000000000000000000000000000000000000000008152600401610542906114c3565b60405180910390fd5b8282600080878152602001908152602001600020600101918261056f929190611729565b504260008086815260200190815260200160002060030181905550600160008086815260200190815260200160002060040160008282546105b09190611828565b9250508190555060016000858152602001908152602001600020838390918060018154018082558091505060019003906000526020600020016000909192909192909192909192509182610605929190611729565b503373ffffffffffffffffffffffffffffffffffffffff16847f6dfdc16aed119840dad28b7e267a6d59b00f9fde09d6f05c183c01d2da3f7ab760008088815260200190815260200160002060040154868660405161066693929190611898565b60405180910390a350505050565b606060008084815260200190815260200160002060050160009054906101000a900460ff166106d8576040517f08c379a00000000000000000000000000000000000000000000000000000000081526004016106cf9061137f565b60405180910390fd5b60016000848152602001908152602001600020805490508210610730576040517f08c379a000000000000000000000000000000000000000000000000000000000815260040161072790611916565b60405180910390fd5b60016000848152602001908152602001600020828154811061075557610754611936565b5b90600052602060002001805461076a9061154c565b80601f01602080910402602001604051908101604052809291908181526020018280546107969061154c565b80156107e35780601f106107b8576101008083540402835291602001916107e3565b820191906000526020600020905b8154815290600101906020018083116107c657829003601f168201915b5050505050905092915050565b600080600084815260200190815260200160002060050160009054906101000a900460ff1661082257600090506108f4565b8173ffffffffffffffffffffffffffffffffffffffff1660008085815260200190815260200160002060000160009054906101000a900473ffffffffffffffffffffffffffffffffffffffff1673ffffffffffffffffffffffffffffffffffffffff160361089357600190506108f4565b6002600084815260200190815260200160002060008373ffffffffffffffffffffffffffffffffffffffff1673ffffffffffffffffffffffffffffffffffffffff16815260200190815260200160002060009054906101000a900460ff1690505b92915050565b8160008082815260200190815260200160002060050160009054906101000a900460ff1661095d576040517f08c379a00000000000000000000000000000000000000000000000000000000081526004016109549061137f565b60405180910390fd5b3373ffffffffffffffffffffffffffffffffffffffff1660008083815260200190815260200160002060000160009054906101000a900473ffffffffffffffffffffffffffffffffffffffff1673ffffffffffffffffffffffffffffffffffffffff1614610a00576040517f08c379a00000000000000000000000000000000000000000000000000000000081526004016109f7906113eb565b60405180910390fd5b60006002600085815260200190815260200160002060008473ffffffffffffffffffffffffffffffffffffffff1673ffffffffffffffffffffffffffffffffffffffff16815260200190815260200160002060006101000a81548160ff0219169083151502179055508173ffffffffffffffffffffffffffffffffffffffff163373ffffffffffffffffffffffffffffffffffffffff16847ffab19bdeacf1ea13315b1da3f79a3403fe4f16793b6a03eeff9e0bbbea24fe5f60405160405180910390a4505050565b60006060600080600080600087815260200190815260200160002060050160009054906101000a900460ff16610b34576040517f08c379a0000000000000000000000000000000000000000000000000000000008152600401610b2b9061137f565b60405180910390fd5b600080600088815260200190815260200160002090508060000160009054906101000a900473ffffffffffffffffffffffffffffffffffffffff1681600101826002015483600301548460040154838054610b8e9061154c565b80601f0160208091040260200160405190810160405280929190818152602001828054610bba9061154c565b8015610c075780601f10610bdc57610100808354040283529160200191610c07565b820191906000526020600020905b815481529060010190602001808311610bea57829003601f168201915b50505050509350955095509550955095505091939590929450565b600080600083815260200190815260200160002060050160009054906101000a900460ff16610c86576040517f08c379a0000000000000000000000000000000000000000000000000000000008152600401610c7d9061137f565b60405180910390fd5b60016000838152602001908152602001600020805490509050919050565b6000801b8303610ce9576040517f08c379a0000000000000000000000000000000000000000000000000000000008152600401610ce0906119b1565b60405180910390fd5b60008282905011610d2f576040517f08c379a0000000000000000000000000000000000000000000000000000000008152600401610d2690611a1d565b60405180910390fd5b60008084815260200190815260200160002060050160009054906101000a900460ff1615610d92576040517f08c379a0000000000000000000000000000000000000000000000000000000008152600401610d8990611a89565b60405180910390fd5b6040518060c001604052803373ffffffffffffffffffffffffffffffffffffffff16815260200183838080601f016020809104026020016040519081016040528093929190818152602001838380828437600081840152601f19601f820116905080830192505050505050508152602001428152602001428152602001600181526020016001151581525060008085815260200190815260200160002060008201518160000160006101000a81548173ffffffffffffffffffffffffffffffffffffffff021916908373ffffffffffffffffffffffffffffffffffffffff1602179055506020820151816001019081610e8b9190611aa9565b5060408201518160020155606082015181600301556080820151816004015560a08201518160050160006101000a81548160ff02191690831515021790555090505060016000848152602001908152602001600020828290918060018154018082558091505060019003906000526020600020016000909192909192909192909192509182610f1b929190611729565b503373ffffffffffffffffffffffffffffffffffffffff16837fdba629cc54aad70846b805286cd90bf0920d3b29656d9b042814d2a2dedf4acb8484604051610f65929190611b7b565b60405180910390a3505050565b600080fd5b600080fd5b6000819050919050565b610f8f81610f7c565b8114610f9a57600080fd5b50565b600081359050610fac81610f86565b92915050565b600073ffffffffffffffffffffffffffffffffffffffff82169050919050565b6000610fdd82610fb2565b9050919050565b610fed81610fd2565b8114610ff857600080fd5b50565b60008135905061100a81610fe4565b92915050565b6000806040838503121561102757611026610f72565b5b600061103585828601610f9d565b925050602061104685828601610ffb565b9150509250929050565b600080fd5b600080fd5b600080fd5b60008083601f84011261107557611074611050565b5b8235905067ffffffffffffffff81111561109257611091611055565b5b6020830191508360018202830111156110ae576110ad61105a565b5b9250929050565b6000806000604084860312156110ce576110cd610f72565b5b60006110dc86828701610f9d565b935050602084013567ffffffffffffffff8111156110fd576110fc610f77565b5b6111098682870161105f565b92509250509250925092565b6000819050919050565b61112881611115565b811461113357600080fd5b50565b6000813590506111458161111f565b92915050565b6000806040838503121561116257611161610f72565b5b600061117085828601610f9d565b925050602061118185828601611136565b9150509250929050565b600081519050919050565b600082825260208201905092915050565b60005b838110156111c55780820151818401526020810190506111aa565b60008484015250505050565b6000601f19601f8301169050919050565b60006111ed8261118b565b6111f78185611196565b93506112078185602086016111a7565b611210816111d1565b840191505092915050565b6000602082019050818103600083015261123581846111e2565b905092915050565b60008115159050919050565b6112528161123d565b82525050565b600060208201905061126d6000830184611249565b92915050565b60006020828403121561128957611288610f72565b5b600061129784828501610f9d565b91505092915050565b6112a981610fd2565b82525050565b6112b881611115565b82525050565b600060a0820190506112d360008301886112a0565b81810360208301526112e581876111e2565b90506112f460408301866112af565b61130160608301856112af565b61130e60808301846112af565b9695505050505050565b600060208201905061132d60008301846112af565b92915050565b7f446f63756d656e74206e6f7420666f756e640000000000000000000000000000600082015250565b6000611369601283611196565b915061137482611333565b602082019050919050565b600060208201905081810360008301526113988161135c565b9050919050565b7f4e6f742074686520646f63756d656e74206f776e657200000000000000000000600082015250565b60006113d5601683611196565b91506113e08261139f565b602082019050919050565b60006020820190508181036000830152611404816113c8565b9050919050565b7f496e76616c696420616464726573730000000000000000000000000000000000600082015250565b6000611441600f83611196565b915061144c8261140b565b602082019050919050565b6000602082019050818103600083015261147081611434565b9050919050565b7f4e65772043494420726571756972656400000000000000000000000000000000600082015250565b60006114ad601083611196565b91506114b882611477565b602082019050919050565b600060208201905081810360008301526114dc816114a0565b9050919050565b600082905092915050565b7f4e487b7100000000000000000000000000000000000000000000000000000000600052604160045260246000fd5b7f4e487b7100000000000000000000000000000000000000000000000000000000600052602260045260246000fd5b6000600282049050600182168061156457607f821691505b6020821081036115775761157661151d565b5b50919050565b60008190508160005260206000209050919050565b60006020601f8301049050919050565b600082821b905092915050565b6000600883026115df7fffffffffffffffffffffffffffffffffffffffffffffffffffffffffffffffff826115a2565b6115e986836115a2565b95508019841693508086168417925050509392505050565b6000819050919050565b600061162661162161161c84611115565b611601565b611115565b9050919050565b6000819050919050565b6116408361160b565b61165461164c8261162d565b8484546115af565b825550505050565b600090565b61166961165c565b611674818484611637565b505050565b5b818110156116985761168d600082611661565b60018101905061167a565b5050565b601f8211156116dd576116ae8161157d565b6116b784611592565b810160208510156116c6578190505b6116da6116d285611592565b830182611679565b50505b505050565b600082821c905092915050565b6000611700600019846008026116e2565b1980831691505092915050565b600061171983836116ef565b9150826002028217905092915050565b61173383836114e3565b67ffffffffffffffff81111561174c5761174b6114ee565b5b611756825461154c565b61176182828561169c565b6000601f831160018114611790576000841561177e578287013590505b611788858261170d565b8655506117f0565b601f19841661179e8661157d565b60005b828110156117c6578489013582556001820191506020850194506020810190506117a1565b868310156117e357848901356117df601f8916826116ef565b8355505b6001600288020188555050505b50505050505050565b7f4e487b7100000000000000000000000000000000000000000000000000000000600052601160045260246000fd5b600061183382611115565b915061183e83611115565b9250828201905080821115611856576118556117f9565b5b92915050565b82818337600083830152505050565b60006118778385611196565b935061188483858461185c565b61188d836111d1565b840190509392505050565b60006040820190506118ad60008301866112af565b81810360208301526118c081848661186b565b9050949350505050565b7f496e646578206f7574206f6620626f756e647300000000000000000000000000600082015250565b6000611900601383611196565b915061190b826118ca565b602082019050919050565b6000602082019050818103600083015261192f816118f3565b9050919050565b7f4e487b7100000000000000000000000000000000000000000000000000000000600052603260045260246000fd5b7f646f63756d656e74486173682072657175697265640000000000000000000000600082015250565b600061199b601583611196565b91506119a682611965565b602082019050919050565b600060208201905081810360008301526119ca8161198e565b9050919050565b7f4349442072657175697265640000000000000000000000000000000000000000600082015250565b6000611a07600c83611196565b9150611a12826119d1565b602082019050919050565b60006020820190508181036000830152611a36816119fa565b9050919050565b7f446f63756d656e7420616c726561647920726567697374657265640000000000600082015250565b6000611a73601b83611196565b9150611a7e82611a3d565b602082019050919050565b60006020820190508181036000830152611aa281611a66565b9050919050565b611ab28261118b565b67ffffffffffffffff811115611acb57611aca6114ee565b5b611ad5825461154c565b611ae082828561169c565b600060209050601f831160018114611b135760008415611b01578287015190505b611b0b858261170d565b865550611b73565b601f198416611b218661157d565b60005b82811015611b4957848901518255600182019150602085019450602081019050611b24565b86831015611b665784890151611b62601f8916826116ef565b8355505b6001600288020188555050505b505050505050565b60006020820190508181036000830152611b9681848661186b565b9050939250505056fea264697066735822122064226c91b78c0a71a17c658fc92b1c507cf5d42150e99120694b7abf1dd4fef164736f6c634300081c0033",
  "linkReferences": {},
  "deployedLinkReferences": {}
}