{
  "_format": "hh-sol-artifact-1",
  "contractName": "DocumentRegistry",
  "sourceName": "contracts/DocumentRegistry.sol",
  "abi": [
    {
      "inputs": [],
      "stateMutability": "nonpayable",
      "type": "constructor"
    },
    {
      "inputs": [
        {
          "internalType": "address",
          "name": "owner",
          "type": "address"
        }
      ],
      "name": "OwnableInvalidOwner",
      "type": "error"
    },
    {
      "inputs": [
        {
          "internalType": "address",
          "name": "account",
          "type": "address"
        }
      ],
      "name": "OwnableUnauthorizedAccount",
      "type": "error"
    },
    {
      "anonymous": false,
      "inputs": [
        {
          "indexed": true,
          "internalType": "string",
          "name": "docId",
          "type": "string"
        },
        {
          "indexed": true,
          "internalType": "address",
          "name": "owner",
          "type": "address"
        },
        {
          "indexed": true,
          "internalType": "address",
          "name": "user",
          "type": "address"
        }
      ],
      "name": "AccessGranted",
      "type": "event"
    },
    {
      "anonymous": false,
      "inputs": [
        {
          "indexed": true,
          "internalType": "string",
          "name": "docId",
          "type": "string"
        },
        {
          "indexed": true,
          "internalType": "address",
          "name": "owner",
          "type": "address"
        },
        {
          "indexed": true,
          "internalType": "address",
          "name": "user",
          "type": "address"
        }
      ],
      "name": "AccessRevoked",
      "type": "event"
    },
    {
      "anonymous": false,
      "inputs": [
        {
          "indexed": true,
          "internalType": "string",
          "name": "docId",
          "type": "string"
        },
        {
          "indexed": true,
          "internalType": "address",
          "name": "owner",
          "type": "address"
        },
        {
          "indexed": false,
          "internalType": "string",
          "name": "name",
          "type": "string"
        }
      ],
      "name": "DocumentRegistered",
      "type": "event"
    },
    {
      "anonymous": false,
      "inputs": [
        {
          "indexed": true,
          "internalType": "string",
          "name": "docId",
          "type": "string"
        },
        {
          "indexed": true,
          "internalType": "address",
          "name": "owner",
          "type": "address"
        },
        {
          "indexed": false,
          "internalType": "uint256",
          "name": "version",
          "type": "uint256"
        },
        {
          "indexed": false,
          "internalType": "string",
          "name": "newHash",
          "type": "string"
        }
      ],
      "name": "DocumentUpdated",
      "type": "event"
    },
    {
      "anonymous": false,
      "inputs": [
        {
          "indexed": true,
          "internalType": "address",
          "name": "previousOwner",
          "type": "address"
        },
        {
          "indexed": true,
          "internalType": "address",
          "name": "newOwner",
          "type": "address"
        }
      ],
      "name": "OwnershipTransferred",
      "type": "event"
    },
    {
      "inputs": [
        {
          "internalType": "string",
          "name": "_docId",
          "type": "string"
        }
      ],
      "name": "getDocument",
      "outputs": [
        {
          "internalType": "string",
          "name": "originalHash",
          "type": "string"
        },
        {
          "internalType": "string",
          "name": "name",
          "type": "string"
        },
        {
          "internalType": "address",
          "name": "owner",
          "type": "address"
        },
        {
          "internalType": "uint256",
          "name": "timestamp",
          "type": "uint256"
        },
        {
          "internalType": "uint256",
          "name": "currentVersion",
          "type": "uint256"
        },
        {
          "internalType": "string",
          "name": "latestHash",
          "type": "string"
        }
      ],
      "stateMutability": "view",
      "type": "function"
    },
    {
      "inputs": [
        {
          "internalType": "string",
          "name": "_docId",
          "type": "string"
        },
        {
          "internalType": "uint256",
          "name": "_index",
          "type": "uint256"
        }
      ],
      "name": "getVersionAtIndex",
      "outputs": [
        {
          "internalType": "string",
          "name": "",
          "type": "string"
        }
      ],
      "stateMutability": "view",
      "type": "function"
    },
    {
      "inputs": [
        {
          "internalType": "string",
          "name": "_docId",
          "type": "string"
        }
      ],
      "name": "getVersionCount",
      "outputs": [
        {
          "internalType": "uint256",
          "name": "",
          "type": "uint256"
        }
      ],
      "stateMutability": "view",
      "type": "function"
    },
    {
      "inputs": [
        {
          "internalType": "string",
          "name": "_docId",
          "type": "string"
        },
        {
          "internalType": "address",
          "name": "_user",
          "type": "address"
        }
      ],
      "name": "grantAccess",
      "outputs": [],
      "stateMutability": "nonpayable",
      "type": "function"
    },
    {
      "inputs": [
        {
          "internalType": "string",
          "name": "_docId",
          "type": "string"
        },
        {
          "internalType": "address",
          "name": "_user",
          "type": "address"
        }
      ],
      "name": "hasAccess",
      "outputs": [
        {
          "internalType": "bool",
          "name": "",
          "type": "bool"
        }
      ],
      "stateMutability": "view",
      "type": "function"
    },
    {
      "inputs": [],
      "name": "owner",
      "outputs": [
        {
          "internalType": "address",
          "name": "",
          "type": "address"
        }
      ],
      "stateMutability": "view",
      "type": "function"
    },
    {
      "inputs": [
        {
          "internalType": "string",
          "name": "_ipfsHash",
          "type": "string"
        },
        {
          "internalType": "string",
          "name": "_name",
          "type": "string"
        }
      ],
      "name": "registerDocument",
      "outputs": [],
      "stateMutability": "nonpayable",
      "type": "function"
    },
    {
      "inputs": [],
      "name": "renounceOwnership",
      "outputs": [],
      "stateMutability": "nonpayable",
      "type": "function"
    },
    {
      "inputs": [
        {
          "internalType": "string",
          "name": "_docId",
          "type": "string"
        },
        {
          "internalType": "address",
          "name": "_user",
          "type": "address"
        }
      ],
      "name": "revokeAccess",
      "outputs": [],
      "stateMutability": "nonpayable",
      "type": "function"
    },
    {
      "inputs": [
        {
          "internalType": "address",
          "name": "newOwner",
          "type": "address"
        }
      ],
      "name": "transferOwnership",
      "outputs": [],
      "stateMutability": "nonpayable",
      "type": "function"
    },
    {
      "inputs": [
        {
          "internalType": "string",
          "name": "_docId",
          "type": "string"
        },
        {
          "internalType": "string",
          "name": "_newHash",
          "type": "string"
        }
      ],
      "name": "updateDocument",
      "outputs": [],
      "stateMutability": "nonpayable",
      "type": "function"
    }
  ],
  "bytecode": "0x608060405234801561001057600080fd5b5033600073ffffffffffffffffffffffffffffffffffffffff168173ffffffffffffffffffffffffffffffffffffffff16036100845760006040517f1e4fbdf700000000000000000000000000000000000000000000000000000000815260040161007b919061019e565b60405180910390fd5b6100938161009960201b60201c565b506101b9565b60008060009054906101000a900473ffffffffffffffffffffffffffffffffffffffff169050816000806101000a81548173ffffffffffffffffffffffffffffffffffffffff021916908373ffffffffffffffffffffffffffffffffffffffff1602179055508173ffffffffffffffffffffffffffffffffffffffff168173ffffffffffffffffffffffffffffffffffffffff167f8be0079c531659141344cd1fd0a4f28419497f9722a3daafe3b4186f6b6457e060405160405180910390a35050565b600073ffffffffffffffffffffffffffffffffffffffff82169050919050565b60006101888261015d565b9050919050565b6101988161017d565b82525050565b60006020820190506101b3600083018461018f565b92915050565b612129806101c86000396000f3fe608060405234801561001057600080fd5b50600436106100a95760003560e01c80637ccb6a64116100715780637ccb6a64146101505780638da5cb5b14610185578063af2c7fa3146101a3578063dfe0b5fe146101d3578063f2fde38b146101ef578063f37c215e1461020b576100a9565b806313bd20e2146100ae5780631c49ea91146100de578063223c3bb9146100fa5780634d300e0c1461012a578063715018a614610146575b600080fd5b6100c860048036038101906100c3919061165b565b610227565b6040516100d591906116d2565b60405180910390f35b6100f860048036038101906100f391906116ed565b610351565b005b610114600480360381019061010f9190611765565b6105d7565b60405161012191906117c7565b60405180910390f35b610144600480360381019061013f91906116ed565b61066d565b005b61014e610905565b005b61016a60048036038101906101659190611765565b610919565b60405161017c96959493929190611870565b60405180910390f35b61018d610c93565b60405161019a91906118e6565b60405180910390f35b6101bd60048036038101906101b8919061192d565b610cbc565b6040516101ca9190611989565b60405180910390f35b6101ed60048036038101906101e8919061165b565b610e57565b005b610209600480360381019061020491906119ab565b611059565b005b6102256004803603810190610220919061165b565b6110df565b005b60006002836040516102399190611a14565b908152602001604051809103902060009054906101000a900460ff16610262576000905061034b565b8173ffffffffffffffffffffffffffffffffffffffff166001846040516102899190611a14565b908152602001604051809103902060020160009054906101000a900473ffffffffffffffffffffffffffffffffffffffff1673ffffffffffffffffffffffffffffffffffffffff16036102df576001905061034b565b6004836040516102ef9190611a14565b908152602001604051809103902060008373ffffffffffffffffffffffffffffffffffffffff1673ffffffffffffffffffffffffffffffffffffffff16815260200190815260200160002060009054906101000a900460ff1690505b92915050565b6000825111610395576040517f08c379a000000000000000000000000000000000000000000000000000000000815260040161038c90611a77565b60405180910390fd5b6002826040516103a59190611a14565b908152602001604051809103902060009054906101000a900460ff1615610401576040517f08c379a00000000000000000000000000000000000000000000000000000000081526004016103f890611ae3565b60405180910390fd5b6040518060a001604052808381526020018281526020013373ffffffffffffffffffffffffffffffffffffffff168152602001428152602001600181525060018360405161044f9190611a14565b908152602001604051809103902060008201518160000190816104729190611d0f565b5060208201518160010190816104889190611d0f565b5060408201518160020160006101000a81548173ffffffffffffffffffffffffffffffffffffffff021916908373ffffffffffffffffffffffffffffffffffffffff160217905550606082015181600301556080820151816004015590505060016002836040516104f99190611a14565b908152602001604051809103902060006101000a81548160ff02191690831515021790555060038260405161052e9190611a14565b90815260200160405180910390208290806001815401808255809150506001900390600052602060002001600090919091909150908161056e9190611d0f565b503373ffffffffffffffffffffffffffffffffffffffff16826040516105949190611a14565b60405180910390207f4d3e8366d54db979c2df7034fffffc94bdfea67b054f98b2f148d555fbe1e0df836040516105cb9190611989565b60405180910390a35050565b60006002826040516105e99190611a14565b908152602001604051809103902060009054906101000a900460ff16610644576040517f08c379a000000000000000000000000000000000000000000000000000000000815260040161063b90611e2d565b60405180910390fd5b6003826040516106549190611a14565b9081526020016040518091039020805490509050919050565b60028260405161067d9190611a14565b908152602001604051809103902060009054906101000a900460ff166106d8576040517f08c379a00000000000000000000000000000000000000000000000000000000081526004016106cf90611e2d565b60405180910390fd5b3373ffffffffffffffffffffffffffffffffffffffff166001836040516106ff9190611a14565b908152602001604051809103902060020160009054906101000a900473ffffffffffffffffffffffffffffffffffffffff1673ffffffffffffffffffffffffffffffffffffffff1614610787576040517f08c379a000000000000000000000000000000000000000000000000000000000815260040161077e90611e99565b60405180910390fd5b60008151116107cb576040517f08c379a00000000000000000000000000000000000000000000000000000000081526004016107c290611f05565b60405180910390fd5b600180836040516107dc9190611a14565b908152602001604051809103902060040160008282546107fc9190611f54565b92505081905550426001836040516108149190611a14565b9081526020016040518091039020600301819055506003826040516108399190611a14565b9081526020016040518091039020819080600181540180825580915050600190039060005260206000200160009091909190915090816108799190611d0f565b503373ffffffffffffffffffffffffffffffffffffffff168260405161089f9190611a14565b60405180910390207f2e2612f2ea82553e7e4718308d6797a8290819bc2e2f36280b056f8981edbdc46001856040516108d89190611a14565b908152602001604051809103902060040154846040516108f9929190611f88565b60405180910390a35050565b61090d611350565b61091760006113d7565b565b606080600080600060606002876040516109339190611a14565b908152602001604051809103902060009054906101000a900460ff1661098e576040517f08c379a000000000000000000000000000000000000000000000000000000000815260040161098590611e2d565b60405180910390fd5b60006001886040516109a09190611a14565b90815260200160405180910390206040518060a00160405290816000820180546109c990611b32565b80601f01602080910402602001604051908101604052809291908181526020018280546109f590611b32565b8015610a425780601f10610a1757610100808354040283529160200191610a42565b820191906000526020600020905b815481529060010190602001808311610a2557829003601f168201915b50505050508152602001600182018054610a5b90611b32565b80601f0160208091040260200160405190810160405280929190818152602001828054610a8790611b32565b8015610ad45780601f10610aa957610100808354040283529160200191610ad4565b820191906000526020600020905b815481529060010190602001808311610ab757829003601f168201915b505050505081526020016002820160009054906101000a900473ffffffffffffffffffffffffffffffffffffffff1673ffffffffffffffffffffffffffffffffffffffff1673ffffffffffffffffffffffffffffffffffffffff1681526020016003820154815260200160048201548152505090506000600389604051610b5b9190611a14565b9081526020016040518091039020805480602002602001604051908101604052809291908181526020016000905b82821015610c35578382906000526020600020018054610ba890611b32565b80601f0160208091040260200160405190810160405280929190818152602001828054610bd490611b32565b8015610c215780601f10610bf657610100808354040283529160200191610c21565b820191906000526020600020905b815481529060010190602001808311610c0457829003601f168201915b505050505081526020019060010190610b89565b505050509050816000015182602001518360400151846060015185608001518560018751610c639190611fb8565b81518110610c7457610c73611fec565b5b6020026020010151975097509750975097509750505091939550919395565b60008060009054906101000a900473ffffffffffffffffffffffffffffffffffffffff16905090565b6060600283604051610cce9190611a14565b908152602001604051809103902060009054906101000a900460ff16610d29576040517f08c379a0000000000000000000000000000000000000000000000000000000008152600401610d2090611e2d565b60405180910390fd5b600383604051610d399190611a14565b9081526020016040518091039020805490508210610d8c576040517f08c379a0000000000000000000000000000000000000000000000000000000008152600401610d8390612067565b60405180910390fd5b600383604051610d9c9190611a14565b90815260200160405180910390208281548110610dbc57610dbb611fec565b5b906000526020600020018054610dd190611b32565b80601f0160208091040260200160405190810160405280929190818152602001828054610dfd90611b32565b8015610e4a5780601f10610e1f57610100808354040283529160200191610e4a565b820191906000526020600020905b815481529060010190602001808311610e2d57829003601f168201915b5050505050905092915050565b600282604051610e679190611a14565b908152602001604051809103902060009054906101000a900460ff16610ec2576040517f08c379a0000000000000000000000000000000000000000000000000000000008152600401610eb990611e2d565b60405180910390fd5b3373ffffffffffffffffffffffffffffffffffffffff16600183604051610ee99190611a14565b908152602001604051809103902060020160009054906101000a900473ffffffffffffffffffffffffffffffffffffffff1673ffffffffffffffffffffffffffffffffffffffff1614610f71576040517f08c379a0000000000000000000000000000000000000000000000000000000008152600401610f6890611e99565b60405180910390fd5b6000600483604051610f839190611a14565b908152602001604051809103902060008373ffffffffffffffffffffffffffffffffffffffff1673ffffffffffffffffffffffffffffffffffffffff16815260200190815260200160002060006101000a81548160ff0219169083151502179055508073ffffffffffffffffffffffffffffffffffffffff163373ffffffffffffffffffffffffffffffffffffffff16836040516110219190611a14565b60405180910390207fd31b40d0e5dc0e720f13cdff5452df15cb4226cbbc509a4a141cb4c3e09bf14b60405160405180910390a45050565b611061611350565b600073ffffffffffffffffffffffffffffffffffffffff168173ffffffffffffffffffffffffffffffffffffffff16036110d35760006040517f1e4fbdf70000000000000000000000000000000000000000000000000000000081526004016110ca91906118e6565b60405180910390fd5b6110dc816113d7565b50565b6002826040516110ef9190611a14565b908152602001604051809103902060009054906101000a900460ff1661114a576040517f08c379a000000000000000000000000000000000000000000000000000000000815260040161114190611e2d565b60405180910390fd5b3373ffffffffffffffffffffffffffffffffffffffff166001836040516111719190611a14565b908152602001604051809103902060020160009054906101000a900473ffffffffffffffffffffffffffffffffffffffff1673ffffffffffffffffffffffffffffffffffffffff16146111f9576040517f08c379a00000000000000000000000000000000000000000000000000000000081526004016111f090611e99565b60405180910390fd5b600073ffffffffffffffffffffffffffffffffffffffff168173ffffffffffffffffffffffffffffffffffffffff1603611268576040517f08c379a000000000000000000000000000000000000000000000000000000000815260040161125f906120d3565b60405180910390fd5b600160048360405161127a9190611a14565b908152602001604051809103902060008373ffffffffffffffffffffffffffffffffffffffff1673ffffffffffffffffffffffffffffffffffffffff16815260200190815260200160002060006101000a81548160ff0219169083151502179055508073ffffffffffffffffffffffffffffffffffffffff163373ffffffffffffffffffffffffffffffffffffffff16836040516113189190611a14565b60405180910390207ffbc6d0108d2bcc402dccd9e59a550c2ec2c25fde70262696fe3d257d59c9cf1860405160405180910390a45050565b61135861149b565b73ffffffffffffffffffffffffffffffffffffffff16611376610c93565b73ffffffffffffffffffffffffffffffffffffffff16146113d55761139961149b565b6040517f118cdaa70000000000000000000000000000000000000000000000000000000081526004016113cc91906118e6565b60405180910390fd5b565b60008060009054906101000a900473ffffffffffffffffffffffffffffffffffffffff169050816000806101000a81548173ffffffffffffffffffffffffffffffffffffffff021916908373ffffffffffffffffffffffffffffffffffffffff1602179055508173ffffffffffffffffffffffffffffffffffffffff168173ffffffffffffffffffffffffffffffffffffffff167f8be0079c531659141344cd1fd0a4f28419497f9722a3daafe3b4186f6b6457e060405160405180910390a35050565b600033905090565b6000604051905090565b600080fd5b600080fd5b600080fd5b600080fd5b6000601f19601f8301169050919050565b7f4e487b7100000000000000000000000000000000000000000000000000000000600052604160045260246000fd5b61150a826114c1565b810181811067ffffffffffffffff82111715611529576115286114d2565b5b80604052505050565b600061153c6114a3565b90506115488282611501565b919050565b600067ffffffffffffffff821115611568576115676114d2565b5b611571826114c1565b9050602081019050919050565b82818337600083830152505050565b60006115a061159b8461154d565b611532565b9050828152602081018484840111156115bc576115bb6114bc565b5b6115c784828561157e565b509392505050565b600082601f8301126115e4576115e36114b7565b5b81356115f484826020860161158d565b91505092915050565b600073ffffffffffffffffffffffffffffffffffffffff82169050919050565b6000611628826115fd565b9050919050565b6116388161161d565b811461164357600080fd5b50565b6000813590506116558161162f565b92915050565b60008060408385031215611672576116716114ad565b5b600083013567ffffffffffffffff8111156116905761168f6114b2565b5b61169c858286016115cf565b92505060206116ad85828601611646565b9150509250929050565b60008115159050919050565b6116cc816116b7565b82525050565b60006020820190506116e760008301846116c3565b92915050565b60008060408385031215611704576117036114ad565b5b600083013567ffffffffffffffff811115611722576117216114b2565b5b61172e858286016115cf565b925050602083013567ffffffffffffffff81111561174f5761174e6114b2565b5b61175b858286016115cf565b9150509250929050565b60006020828403121561177b5761177a6114ad565b5b600082013567ffffffffffffffff811115611799576117986114b2565b5b6117a5848285016115cf565b91505092915050565b6000819050919050565b6117c1816117ae565b82525050565b60006020820190506117dc60008301846117b8565b92915050565b600081519050919050565b600082825260208201905092915050565b60005b8381101561181c578082015181840152602081019050611801565b60008484015250505050565b6000611833826117e2565b61183d81856117ed565b935061184d8185602086016117fe565b611856816114c1565b840191505092915050565b61186a8161161d565b82525050565b600060c082019050818103600083015261188a8189611828565b9050818103602083015261189e8188611828565b90506118ad6040830187611861565b6118ba60608301866117b8565b6118c760808301856117b8565b81810360a08301526118d98184611828565b9050979650505050505050565b60006020820190506118fb6000830184611861565b92915050565b61190a816117ae565b811461191557600080fd5b50565b60008135905061192781611901565b92915050565b60008060408385031215611944576119436114ad565b5b600083013567ffffffffffffffff811115611962576119616114b2565b5b61196e858286016115cf565b925050602061197f85828601611918565b9150509250929050565b600060208201905081810360008301526119a38184611828565b905092915050565b6000602082840312156119c1576119c06114ad565b5b60006119cf84828501611646565b91505092915050565b600081905092915050565b60006119ee826117e2565b6119f881856119d8565b9350611a088185602086016117fe565b80840191505092915050565b6000611a2082846119e3565b915081905092915050565b7f4950465320686173682072657175697265640000000000000000000000000000600082015250565b6000611a616012836117ed565b9150611a6c82611a2b565b602082019050919050565b60006020820190508181036000830152611a9081611a54565b9050919050565b7f446f63756d656e7420616c726561647920726567697374657265640000000000600082015250565b6000611acd601b836117ed565b9150611ad882611a97565b602082019050919050565b60006020820190508181036000830152611afc81611ac0565b9050919050565b7f4e487b7100000000000000000000000000000000000000000000000000000000600052602260045260246000fd5b60006002820490506001821680611b4a57607f821691505b602082108103611b5d57611b5c611b03565b5b50919050565b60008190508160005260206000209050919050565b60006020601f8301049050919050565b600082821b905092915050565b600060088302611bc57fffffffffffffffffffffffffffffffffffffffffffffffffffffffffffffffff82611b88565b611bcf8683611b88565b95508019841693508086168417925050509392505050565b6000819050919050565b6000611c0c611c07611c02846117ae565b611be7565b6117ae565b9050919050565b6000819050919050565b611c2683611bf1565b611c3a611c3282611c13565b848454611b95565b825550505050565b600090565b611c4f611c42565b611c5a818484611c1d565b505050565b5b81811015611c7e57611c73600082611c47565b600181019050611c60565b5050565b601f821115611cc357611c9481611b63565b611c9d84611b78565b81016020851015611cac578190505b611cc0611cb885611b78565b830182611c5f565b50505b505050565b600082821c905092915050565b6000611ce660001984600802611cc8565b1980831691505092915050565b6000611cff8383611cd5565b9150826002028217905092915050565b611d18826117e2565b67ffffffffffffffff811115611d3157611d306114d2565b5b611d3b8254611b32565b611d46828285611c82565b600060209050601f831160018114611d795760008415611d67578287015190505b611d718582611cf3565b865550611dd9565b601f198416611d8786611b63565b60005b82811015611daf57848901518255600182019150602085019450602081019050611d8a565b86831015611dcc5784890151611dc8601f891682611cd5565b8355505b6001600288020188555050505b505050505050565b7f446f63756d656e74206e6f7420666f756e640000000000000000000000000000600082015250565b6000611e176012836117ed565b9150611e2282611de1565b602082019050919050565b60006020820190508181036000830152611e4681611e0a565b9050919050565b7f4e6f742074686520646f63756d656e74206f776e657200000000000000000000600082015250565b6000611e836016836117ed565b9150611e8e82611e4d565b602082019050919050565b60006020820190508181036000830152611eb281611e76565b9050919050565b7f4e65772068617368207265717569726564000000000000000000000000000000600082015250565b6000611eef6011836117ed565b9150611efa82611eb9565b602082019050919050565b60006020820190508181036000830152611f1e81611ee2565b9050919050565b7f4e487b7100000000000000000000000000000000000000000000000000000000600052601160045260246000fd5b6000611f5f826117ae565b9150611f6a836117ae565b9250828201905080821115611f8257611f81611f25565b5b92915050565b6000604082019050611f9d60008301856117b8565b8181036020830152611faf8184611828565b90509392505050565b6000611fc3826117ae565b9150611fce836117ae565b9250828203905081811115611fe657611fe5611f25565b5b92915050565b7f4e487b7100000000000000000000000000000000000000000000000000000000600052603260045260246000fd5b7f496e646578206f7574206f6620626f756e647300000000000000000000000000600082015250565b60006120516013836117ed565b915061205c8261201b565b602082019050919050565b6000602082019050818103600083015261208081612044565b9050919050565b7f496e76616c696420616464726573730000000000000000000000000000000000600082015250565b60006120bd600f836117ed565b91506120c882612087565b602082019050919050565b600060208201905081810360008301526120ec816120b0565b905091905056fea2646970667358221220abd3b8e37e61cf09b6181bbb4ab91f6f71fb412aede4a59ad90ebbce9efea58664736f6c634300081c0033",
  "linkReferences": {},
  "deployedLinkReferences": {}
}